:100000000C9462000C948A000C948A000C948A0070
:100010000C948A000C948A000C948A000C948A0038
:100020000C948A000C948A000C948A000C948A0028
:100030000C948A000C948A000C948A000C948A0018
:100040000C9441010C948A000C94CA020C94FB029B
:100050000C948A000C948A000C948A000C948A00F8
:100060000C948A000C948A000000000024002700F1
:100070002A0000000000250028002B0000000000DE
:1000800023002600290004040404040404040202DA
:100090000202020203030303030301020408102007
:1000A0004080010204081020010204081020000012
:1000B0000007000201000003040600000000000029
:1000C0000000C00311241FBECFEFD8E0DEBFCDBFBC
:1000D00011E0A0E0B1E0E6E3F9E002C005900D9286
:1000E000AC32B107D9F711E0ACE2B1E001C01D922A
:1000F000AC3DB107E1F710E0C4ECD0E004C02297BA
:10010000FE010E949504C23CD107C9F70E94FD037D
:100110000C9499040C940000CF93DF938DE061E080
:100120000E94E500CDEBD1E0CE0140E855E260E071
:1001300070E00E944203CE0160E071E00E9447043B
:10014000DF91CF9108958DE061E00E94090164EF95
:1001500071E080E090E00E94AF018DE060E00E94DD
:10016000090168EE73E080E090E00E94AF0108951D
:10017000833071F0843028F48130A1F0823021F591
:1001800014C08630B1F08730D1F08430E9F404C077
:10019000809180008F7703C0809180008F7D809355
:1001A0008000089584B58F7702C084B58F7D84BDAB
:1001B00008958091B0008F778093B000089580916A
:1001C000B0008F7D8093B000089590E0FC01E6566A
:1001D000FF4F2491FC01EA57FF4FE491EE23C1F059
:1001E000F0E0EE0FFF1FE859FF4F85919491DC017D
:1001F000662341F49FB7F8948C91209582238C93C9
:100200009FBF08959FB7F8948C91822B8C939FBFCA
:1002100008950F931F93DF93CF930F92CDB7DEB75F
:10022000282F30E0F901E255FF4F8491F901E6569D
:10023000FF4F14912A573F4FF90104910023D9F041
:10024000882321F069830E94B8006981E02FF0E0E3
:10025000EE0FFF1FEE58FF4F85919491DC019FB781
:10026000F894662321F48C911095812302C08C911F
:10027000812B8C939FBF0F90CF91DF911F910F9196
:1002800008951F920F920FB60F9211242F933F9350
:100290008F939F93AF93BF938091300190913101E1
:1002A000A0913201B0913301309134010196A11D2A
:1002B000B11D232F2D5F2D3720F02D570196A11D45
:1002C000B11D209334018093300190933101A093AC
:1002D0003201B093330180912C0190912D01A091B6
:1002E0002E01B0912F010196A11DB11D80932C010B
:1002F00090932D01A0932E01B0932F01BF91AF9148
:100300009F918F913F912F910F900FBE0F901F9053
:1003100018959FB7F89420912C0130912D014091B0
:100320002E0150912F0186B5A89B06C08F3F21F06A
:100330002F5F3F4F4F4F5F4F9FBF542F432F322FA1
:100340002227280F311D411D511D82E0220F331F2E
:10035000441F551F8A95D1F7B901CA010895EF923C
:10036000FF920F931F93CF93DF937B018C010E9429
:100370008901EB010FC00E9489016C1B7D0B83E09A
:10038000683E780738F00894E108F108010911097E
:10039000C851DC4FE114F1040105110561F7DF914B
:1003A000CF911F910F91FF90EF900895789484B5AD
:1003B000826084BD84B5816084BD85B5826085BD61
:1003C00085B5816085BDEEE6F0E080818160808347
:1003D000E1E8F0E01082808182608083808181602A
:1003E0008083E0E8F0E0808181608083E1EBF0E0F1
:1003F000808184608083E0EBF0E080818160808395
:10040000EAE7F0E08081846080838081826080837D
:100410008081816080838081806880831092C100A8
:100420000895FC0184859585FC01E05CFF4F2081E7
:1004300031818E5B9F4FFC0180819181281B390B9C
:100440002F733070C9010895FC0184859585FC01E6
:10045000E05CFF4F40815181FC01EE5BFF4F20814A
:1004600031814217530741F00190F081E02DE80FF0
:10047000F91F208130E002C02FEF3FEFC90108953E
:10048000FC0184859585FC01E05CFF4F4081518132
:10049000FC01EE5BFF4F208131814217530771F061
:1004A000A081B181A80FB91F2C9180819181019603
:1004B0008F7390709183808330E002C02FEF3FEF05
:1004C000C9010895DC011E968D919C911F97FC0136
:1004D000E05CFF4F8E5B9F4F40815181DC012D918D
:1004E0003C91119742175307B9F708951F93FC01E8
:1004F000162F26853785D901A05CBF4F8D919C9121
:10050000019660E470E00E944A04D901AE5BBF4FDF
:100510004D915C91119784179507D1F3D901A05C97
:10052000BF4F0D90BC91A02DA20FB31F1C93A685A9
:10053000B785A05CBF4F11969C938E93A689B7890F
:100540002C9181E090E0058C02C0880F991F0A94DD
:10055000E2F7282B2C9381E090E01F910895FB0196
:10056000E05CFF4F208131812F5F3F4F2F73307050
:10057000DB01AE5BBF4F4D915C911197241735079E
:1005800039F0A081B181A60FB71F8C9331832083EE
:10059000089508951F920F920FB60F9211242F9372
:1005A0003F934F935F936F937F938F939F93AF93FB
:1005B000BF93EF93FF938091C60065E371E00E94C3
:1005C000AF02FF91EF91BF91AF919F918F917F917A
:1005D0006F915F914F913F912F910F900FBE0F90B0
:1005E0001F9018958DEB91E00E941102009711F079
:1005F0000E94C90208951F920F920FB60F92112404
:100600002F933F935F936F937F938F939F93AF93BA
:10061000BF93EF93FF932091B9013091BA0180917C
:10062000BB019091BC012817390731F48091C100BA
:100630008F7D8093C10016C0E091BB01F091BC0199
:10064000E758FE4F20818091BB019091BC0101963B
:1006500060E470E00E944A049093BC018093BB0167
:100660002093C600FF91EF91BF91AF919F918F9121
:100670007F916F915F913F912F910F900FBE0F90DF
:100680001F901895DF92EF92FF920F931F93CF93D5
:10069000DF93EC017A018B01DD24D394403081EEAD
:1006A000580780E0680780E0780749F4DD24EC898A
:1006B000FD89108260E874E88EE190E00FC0EC895B
:1006C000FD8981E090E00E8C02C0880F991F0A948A
:1006D000E2F7808360E079E08DE390E0A801970184
:1006E0000E945D042150304040405040569547954F
:1006F0003795279580E12030380710F0DD20B1F6DE
:10070000E889F9893083EA89FB892083EE89FF89AA
:10071000408181E090E09C010A8C02C0220F331FCF
:100720000A94E2F7422B4083EE89FF8940819C01C5
:100730000B8C02C0220F331F0A94E2F7422B408336
:10074000EE89FF8940819C010C8C02C0220F331F6F
:100750000A94E2F7422B4083EE89FF8920810D8CB9
:1007600002C0880F991F0A94E2F780958223808344
:10077000DF91CF911F910F91FF90EF90DF9008953F
:100780001092C0011092BF0188EE93E0A0E0B0E0AB
:100790008093C1019093C201A093C301B093C4019F
:1007A000EFEBF1E08FE191E09293829385E391E0AA
:1007B0009587848789E791E09787868785EC90E025
:1007C000918B808B84EC90E0938B828B80EC90E01B
:1007D000958B848B81EC90E0978B868B86EC90E0F8
:1007E000918F808F84E0828F83E0838F87E0848F76
:1007F00085E0858F81E0868F0895CF93DF930E94F7
:10080000D6010E948C00C2EFD2E00E94A300209784
:10081000E1F30E94F202F9CFCF92DF92EF92FF92C2
:100820000F931F93CF93DF936C017B018A01C0E08C
:10083000D0E00FC0D7016D917D01D601ED91FC9103
:100840000190F081E02DC6010995C80FD91F015014
:1008500010400115110571F7CE01DF91CF911F9165
:100860000F91FF90EF90DF90CF900895DB010D90F6
:100870000020E9F7AD0141505040461B570BDC0109
:10088000ED91FC910280F381E02D099508950E947D
:100890003604089597FB092E07260AD077FD04D069
:1008A0002ED006D000201AF4709561957F4F0895E0
:1008B000F6F7909581959F4F0895A1E21A2EAA1BF5
:1008C000BB1BFD010DC0AA1FBB1FEE1FFF1FA21700
:1008D000B307E407F50720F0A21BB30BE40BF50BFD
:1008E000661F771F881F991F1A9469F76095709586
:1008F000809590959B01AC01BD01CF010895AA1B85
:10090000BB1B51E107C0AA1FBB1FA617B70710F0FA
:10091000A61BB70B881F991F5A95A9F7809590952C
:10092000BC01CD010895EE0FFF1F0590F491E02D5D
:060930000994F894FFCFCA
:1009360048656C6C6F20776F726C642E2054696DFD
:100946006520746F20426C696E6B000000000076B3
:0C095600020C04110240022402620200A4
:00000001FF
